S00D000054494D45522E7372656396
S11300000C9434000C943E000C943E000C943E007E
S11300100C943E000C943E000C943E000C943E0064
S11300200C943E000C943E000C943E000C94B700DB
S11300300C943E000C943E000C943E000C943E0044
S11300400C943E000C943E000C943E000C943E0034
S11300500C943E000C943E000C943E000C943E0024
S11300600C943E000C943E0011241FBECFEFD8E048
S1130070DEBFCDBF0E94AF000C94C1000C94000001
S113008081111FC0E4E6F0E080818F7D808384B518
S1130090817084BD84B5817084BD84B5816084BD64
S11300A085B5817085BD85B5877F85BD85B5816042
S11300B085BDEEE6F0E08081816080838CE987BDB8
S11300C00895813039F5E4E6F0E08081877F80830C
S11300D0E0E8F0E08081817080838081817080839A
S11300E0808181708083E1E8F0E080818170808389
S11300F0808181608083808181608083EFE6F0E08D
S11301008081816080838BE196E090938900809365
S113011088000895823011F5E4E6F0E080818F7B59
S11301208083E0EBF0E08081817080838081817046
S11301308083808181608083E1EBF0E08081817045
S1130140808380818083808181608083E0E7F0E028
S11301508081816080838CE98093B3000895F89452
S11301608FEF8AB981E00E9440007894FFCF589BBA
S113017004C08BB18E7F8BB908958BB181608BB92C
S10901800895F894FFCF7E
S9030000FC
